{
  "contractName": "Todo",
  "abi": [
    {
      "inputs": [],
      "name": "todoCount",
      "outputs": [
        {
          "internalType": "int256",
          "name": "",
          "type": "int256"
        }
      ],
      "stateMutability": "view",
      "type": "function",
      "constant": true
    },
    {
      "inputs": [
        {
          "internalType": "address",
          "name": "",
          "type": "address"
        }
      ],
      "name": "users",
      "outputs": [
        {
          "internalType": "address",
          "name": "user",
          "type": "address"
        }
      ],
      "stateMutability": "view",
      "type": "function",
      "constant": true
    },
    {
      "inputs": [
        {
          "internalType": "address",
          "name": "_address",
          "type": "address"
        }
      ],
      "name": "getAllTodos",
      "outputs": [
        {
          "components": [
            {
              "internalType": "int256",
              "name": "id",
              "type": "int256"
            },
            {
              "internalType": "string",
              "name": "todoContent",
              "type": "string"
            }
          ],
          "internalType": "struct Todo.TodoItem[]",
          "name": "",
          "type": "tuple[]"
        }
      ],
      "stateMutability": "view",
      "type": "function",
      "constant": true
    },
    {
      "inputs": [
        {
          "internalType": "address",
          "name": "_address",
          "type": "address"
        },
        {
          "internalType": "uint256",
          "name": "_todoID",
          "type": "uint256"
        }
      ],
      "name": "getTodo",
      "outputs": [
        {
          "components": [
            {
              "internalType": "int256",
              "name": "id",
              "type": "int256"
            },
            {
              "internalType": "string",
              "name": "todoContent",
              "type": "string"
            }
          ],
          "internalType": "struct Todo.TodoItem",
          "name": "",
          "type": "tuple"
        }
      ],
      "stateMutability": "view",
      "type": "function",
      "constant": true
    },
    {
      "inputs": [
        {
          "internalType": "address",
          "name": "_address",
          "type": "address"
        },
        {
          "internalType": "string",
          "name": "_todoContent",
          "type": "string"
        }
      ],
      "name": "addTodo",
      "outputs": [],
      "stateMutability": "nonpayable",
      "type": "function"
    }
  ],
  "bytecode": "0x60806040526000805534801561001457600080fd5b50610b24806100246000396000f3fe608060405234801561001057600080fd5b50600436106100575760003560e01c80633260a5d01461005c5780633fb2017814610078578063614f3180146100a8578063a87430ba146100d8578063fe0dee1714610108575b600080fd5b610076600480360381019061007191906106ea565b610126565b005b610092600480360381019061008d919061077c565b6101db565b60405161009f919061089a565b60405180910390f35b6100c260048036038101906100bd91906108bc565b6102f4565b6040516100cf91906109e8565b60405180910390f35b6100f260048036038101906100ed91906108bc565b610431565b6040516100ff9190610a19565b60405180910390f35b61011061046f565b60405161011d9190610a43565b60405180910390f35b600060405180604001604052806000548152602001838152509050600160008473ffffffffffffffffffffffffffffffffffffffff1673ffffffffffffffffffffffffffffffffffffffff1681526020019081526020016000206001018190806001815401808255809150506001900390600052602060002090600202016000909190919091506000820151816000015560208201518160010190805190602001906101d3929190610475565b505050505050565b6101e36104fb565b600160008473ffffffffffffffffffffffffffffffffffffffff1673ffffffffffffffffffffffffffffffffffffffff168152602001908152602001600020600101828154811061023757610236610a5e565b5b90600052602060002090600202016040518060400160405290816000820154815260200160018201805461026a90610abc565b80601f016020809104026020016040519081016040528092919081815260200182805461029690610abc565b80156102e35780601f106102b8576101008083540402835291602001916102e3565b820191906000526020600020905b8154815290600101906020018083116102c657829003601f168201915b505050505081525050905092915050565b6060600160008373ffffffffffffffffffffffffffffffffffffffff1673ffffffffffffffffffffffffffffffffffffffff168152602001908152602001600020600101805480602002602001604051908101604052809291908181526020016000905b8282101561042657838290600052602060002090600202016040518060400160405290816000820154815260200160018201805461039590610abc565b80601f01602080910402602001604051908101604052809291908181526020018280546103c190610abc565b801561040e5780601f106103e35761010080835404028352916020019161040e565b820191906000526020600020905b8154815290600101906020018083116103f157829003601f168201915b50505050508152505081526020019060010190610358565b505050509050919050565b60016020528060005260406000206000915090508060000160009054906101000a900473ffffffffffffffffffffffffffffffffffffffff16905081565b60005481565b82805461048190610abc565b90600052602060002090601f0160209004810192826104a357600085556104ea565b82601f106104bc57805160ff19168380011785556104ea565b828001600101855582156104ea579182015b828111156104e95782518255916020019190600101906104ce565b5b5090506104f79190610515565b5090565b604051806040016040528060008152602001606081525090565b5b8082111561052e576000816000905550600101610516565b5090565b6000604051905090565b600080fd5b600080fd5b600073ffffffffffffffffffffffffffffffffffffffff82169050919050565b600061057182610546565b9050919050565b61058181610566565b811461058c57600080fd5b50565b60008135905061059e81610578565b92915050565b600080fd5b600080fd5b6000601f19601f8301169050919050565b7f4e487b7100000000000000000000000000000000000000000000000000000000600052604160045260246000fd5b6105f7826105ae565b810181811067ffffffffffffffff82111715610616576106156105bf565b5b80604052505050565b6000610629610532565b905061063582826105ee565b919050565b600067ffffffffffffffff821115610655576106546105bf565b5b61065e826105ae565b9050602081019050919050565b82818337600083830152505050565b600061068d6106888461063a565b61061f565b9050828152602081018484840111156106a9576106a86105a9565b5b6106b484828561066b565b509392505050565b600082601f8301126106d1576106d06105a4565b5b81356106e184826020860161067a565b91505092915050565b600080604083850312156107015761070061053c565b5b600061070f8582860161058f565b925050602083013567ffffffffffffffff8111156107305761072f610541565b5b61073c858286016106bc565b9150509250929050565b6000819050919050565b61075981610746565b811461076457600080fd5b50565b60008135905061077681610750565b92915050565b600080604083850312156107935761079261053c565b5b60006107a18582860161058f565b92505060206107b285828601610767565b9150509250929050565b6000819050919050565b6107cf816107bc565b82525050565b600081519050919050565b600082825260208201905092915050565b60005b8381101561080f5780820151818401526020810190506107f4565b8381111561081e576000848401525b50505050565b600061082f826107d5565b61083981856107e0565b93506108498185602086016107f1565b610852816105ae565b840191505092915050565b600060408301600083015161087560008601826107c6565b506020830151848203602086015261088d8282610824565b9150508091505092915050565b600060208201905081810360008301526108b4818461085d565b905092915050565b6000602082840312156108d2576108d161053c565b5b60006108e08482850161058f565b91505092915050565b600081519050919050565b600082825260208201905092915050565b6000819050602082019050919050565b600060408301600083015161092d60008601826107c6565b50602083015184820360208601526109458282610824565b9150508091505092915050565b600061095e8383610915565b905092915050565b6000602082019050919050565b600061097e826108e9565b61098881856108f4565b93508360208202850161099a85610905565b8060005b858110156109d657848403895281516109b78582610952565b94506109c283610966565b925060208a0199505060018101905061099e565b50829750879550505050505092915050565b60006020820190508181036000830152610a028184610973565b905092915050565b610a1381610566565b82525050565b6000602082019050610a2e6000830184610a0a565b92915050565b610a3d816107bc565b82525050565b6000602082019050610a586000830184610a34565b92915050565b7f4e487b7100000000000000000000000000000000000000000000000000000000600052603260045260246000fd5b7f4e487b7100000000000000000000000000000000000000000000000000000000600052602260045260246000fd5b60006002820490506001821680610ad457607f821691505b60208210811415610ae857610ae7610a8d565b5b5091905056fea26469706673582212201e2eb48bd3d2f5a6558cec8da9ca39079f0558a401ee668d97705d6f13b36c4664736f6c634300080b0033",
  "immutableReferences": {},
  "source": "// SPDX-License-Identifier: MIT\npragma solidity >=0.4.22 <0.9.0;\n\ncontract Todo {\n  int256 public todoCount = 0;\n  mapping(address => UserTodos) public users;\n\n  struct TodoItem {\n    int256 id;\n    string todoContent;\n  }\n\n  struct UserTodos {\n    address user;\n    TodoItem[] todos;\n  }\n\n  function getAllTodos(address _address) public view returns (TodoItem[] memory) {\n    return users[_address].todos;\n  }\n\n  function getTodo(address _address, uint256 _todoID) view public returns (TodoItem memory) {\n    return users[_address].todos[_todoID];\n  }\n\n  function addTodo(address _address, string memory _todoContent) public {\n    TodoItem memory newTodo = TodoItem(todoCount, _todoContent);\n    users[_address].todos.push(newTodo);\n  }\n}",
  "sourcePath": "/home/egesabanci/Desktop/projects/blockchain/blockchain-deploy-tutorial/blockchain/contracts/Todo.sol",
  "compiler": {
    "name": "solc",
    "version": "0.8.11+commit.d7f03943.Emscripten.clang"
  },
  "schemaVersion": "3.4.4",
  "updatedAt": "2022-01-19T09:19:08.952Z",
  "networkType": "ethereum",
  "devdoc": {
    "kind": "dev",
    "methods": {},
    "version": 1
  },
  "userdoc": {
    "kind": "user",
    "methods": {},
    "version": 1
  }
}